{
  "_format": "hh-sol-artifact-1",
  "contractName": "SimpleContract",
  "sourceName": "contracts/03_SimpleContract.sol",
  "abi": [
    {
      "inputs": [
        {
          "internalType": "uint64",
          "name": "counter_",
          "type": "uint64"
        }
      ],
      "stateMutability": "nonpayable",
      "type": "constructor"
    },
    {
      "inputs": [],
      "name": "getCounter",
      "outputs": [
        {
          "internalType": "uint64",
          "name": "",
          "type": "uint64"
        }
      ],
      "stateMutability": "view",
      "type": "function"
    },
    {
      "inputs": [],
      "name": "updateCaller",
      "outputs": [],
      "stateMutability": "nonpayable",
      "type": "function"
    }
  ],
  "bytecode": "0x608060405234801561001057600080fd5b5060405161019b38038061019b83398101604081905261002f91610054565b600080546001600160401b0319166001600160401b0392909216919091179055610084565b60006020828403121561006657600080fd5b81516001600160401b038116811461007d57600080fd5b9392505050565b610108806100936000396000f3fe6080604052348015600f57600080fd5b506004361060325760003560e01c80634cf05acf1460375780638ada066e14603f575b600080fd5b603d605f565b005b6000546040805167ffffffffffffffff9092168252519081900360200190f35b60005460759067ffffffffffffffff1660016099565b6000805467ffffffffffffffff191667ffffffffffffffff92909216919091179055565b600067ffffffffffffffff80831681851680830382111560c957634e487b7160e01b600052601160045260246000fd5b0194935050505056fea2646970667358221220399ae3ffdc7e26f24b7ebb2b77f2991f201d80918599392bbbf599646cc46fbb64736f6c63430008070033",
  "linkReferences": {},
  "deployedLinkReferences": {}
}